{
  "contractName": "ManagerOgani",
  "abi": [
    {
      "inputs": [
        {
          "internalType": "uint256",
          "name": "",
          "type": "uint256"
        }
      ],
      "name": "listPayments",
      "outputs": [
        {
          "internalType": "string",
          "name": "idProduct",
          "type": "string"
        },
        {
          "internalType": "uint256",
          "name": "totalPayment",
          "type": "uint256"
        },
        {
          "internalType": "address",
          "name": "supplier",
          "type": "address"
        },
        {
          "internalType": "address",
          "name": "currentAdmin",
          "type": "address"
        }
      ],
      "stateMutability": "view",
      "type": "function",
      "constant": true
    },
    {
      "inputs": [],
      "name": "transactionCount",
      "outputs": [
        {
          "internalType": "uint256",
          "name": "",
          "type": "uint256"
        }
      ],
      "stateMutability": "view",
      "type": "function",
      "constant": true
    },
    {
      "stateMutability": "payable",
      "type": "receive",
      "payable": true
    },
    {
      "inputs": [
        {
          "internalType": "string",
          "name": "_idProduct",
          "type": "string"
        },
        {
          "internalType": "address",
          "name": "_supplier",
          "type": "address"
        }
      ],
      "name": "transferToSupplier",
      "outputs": [],
      "stateMutability": "payable",
      "type": "function",
      "payable": true
    },
    {
      "inputs": [
        {
          "internalType": "uint256",
          "name": "index",
          "type": "uint256"
        }
      ],
      "name": "getTransaction",
      "outputs": [
        {
          "components": [
            {
              "internalType": "string",
              "name": "idProduct",
              "type": "string"
            },
            {
              "internalType": "uint256",
              "name": "totalPayment",
              "type": "uint256"
            },
            {
              "internalType": "address",
              "name": "supplier",
              "type": "address"
            },
            {
              "internalType": "address",
              "name": "currentAdmin",
              "type": "address"
            }
          ],
          "internalType": "struct ManagerOgani.PaymentObject",
          "name": "",
          "type": "tuple"
        }
      ],
      "stateMutability": "view",
      "type": "function",
      "constant": true
    },
    {
      "inputs": [],
      "name": "getAllTransaction",
      "outputs": [
        {
          "components": [
            {
              "internalType": "string",
              "name": "idProduct",
              "type": "string"
            },
            {
              "internalType": "uint256",
              "name": "totalPayment",
              "type": "uint256"
            },
            {
              "internalType": "address",
              "name": "supplier",
              "type": "address"
            },
            {
              "internalType": "address",
              "name": "currentAdmin",
              "type": "address"
            }
          ],
          "internalType": "struct ManagerOgani.PaymentObject[]",
          "name": "",
          "type": "tuple[]"
        }
      ],
      "stateMutability": "view",
      "type": "function",
      "constant": true
    },
    {
      "inputs": [
        {
          "internalType": "uint256",
          "name": "withdrawAmount",
          "type": "uint256"
        }
      ],
      "name": "withdraw",
      "outputs": [],
      "stateMutability": "nonpayable",
      "type": "function"
    }
  ],
  "bytecode": "0x608060405234801561001057600080fd5b50611122806100206000396000f3fe6080604052600436106100595760003560e01c80632e1a7d4d1461006557806333ea3dc81461008e5780638d3c8ab6146100cb578063add6415d1461010b578063b77bf60014610136578063bb015a401461016157610060565b3661006057005b600080fd5b34801561007157600080fd5b5061008c60048036038101906100879190610a0a565b61017d565b005b34801561009a57600080fd5b506100b560048036038101906100b09190610a0a565b610214565b6040516100c29190610b83565b60405180910390f35b3480156100d757600080fd5b506100f260048036038101906100ed9190610a0a565b610443565b6040516101029493929190610c0d565b60405180910390f35b34801561011757600080fd5b5061012061053b565b60405161012d9190610d7e565b60405180910390f35b34801561014257600080fd5b5061014b610748565b6040516101589190610da0565b60405180910390f35b61017b60048036038101906101769190610f1c565b61074e565b005b80670de0b6b3a76400008111156101c9576040517f08c379a00000000000000000000000000000000000000000000000000000000081526004016101c090610fc4565b60405180910390fd5b3373ffffffffffffffffffffffffffffffffffffffff166108fc839081150290604051600060405180830381858888f1935050505015801561020f573d6000803e3d6000fd5b505050565b61021c6108c9565b6000805467ffffffffffffffff81111561023957610238610dc5565b5b60405190808252806020026020018201604052801561027257816020015b61025f6108c9565b8152602001906001900390816102575790505b50905060005b60005481101561041f576000600160008381526020019081526020016000209050806040518060800160405290816000820180546102b590611013565b80601f01602080910402602001604051908101604052809291908181526020018280546102e190611013565b801561032e5780601f106103035761010080835404028352916020019161032e565b820191906000526020600020905b81548152906001019060200180831161031157829003601f168201915b50505050508152602001600182015481526020016002820160009054906101000a900473ffffffffffffffffffffffffffffffffffffffff1673ffffffffffffffffffffffffffffffffffffffff1673ffffffffffffffffffffffffffffffffffffffff1681526020016003820160009054906101000a900473ffffffffffffffffffffffffffffffffffffffff1673ffffffffffffffffffffffffffffffffffffffff1673ffffffffffffffffffffffffffffffffffffffff1681525050838381518110610400576103ff611045565b5b6020026020010181905250508080610417906110a3565b915050610278565b5080838151811061043357610432611045565b5b6020026020010151915050919050565b600160205280600052604060002060009150905080600001805461046690611013565b80601f016020809104026020016040519081016040528092919081815260200182805461049290611013565b80156104df5780601f106104b4576101008083540402835291602001916104df565b820191906000526020600020905b8154815290600101906020018083116104c257829003601f168201915b5050505050908060010154908060020160009054906101000a900473ffffffffffffffffffffffffffffffffffffffff16908060030160009054906101000a900473ffffffffffffffffffffffffffffffffffffffff16905084565b60606000805467ffffffffffffffff81111561055a57610559610dc5565b5b60405190808252806020026020018201604052801561059357816020015b6105806108c9565b8152602001906001900390816105785790505b50905060005b600054811015610740576000600160008381526020019081526020016000209050806040518060800160405290816000820180546105d690611013565b80601f016020809104026020016040519081016040528092919081815260200182805461060290611013565b801561064f5780601f106106245761010080835404028352916020019161064f565b820191906000526020600020905b81548152906001019060200180831161063257829003601f168201915b50505050508152602001600182015481526020016002820160009054906101000a900473ffffffffffffffffffffffffffffffffffffffff1673ffffffffffffffffffffffffffffffffffffffff1673ffffffffffffffffffffffffffffffffffffffff1681526020016003820160009054906101000a900473ffffffffffffffffffffffffffffffffffffffff1673ffffffffffffffffffffffffffffffffffffffff1673ffffffffffffffffffffffffffffffffffffffff168152505083838151811061072157610720611045565b5b6020026020010181905250508080610738906110a3565b915050610599565b508091505090565b60005481565b60405180608001604052808381526020013481526020018273ffffffffffffffffffffffffffffffffffffffff1681526020013373ffffffffffffffffffffffffffffffffffffffff16815250600160008054815260200190815260200160002060008201518160000190805190602001906107cb92919061091d565b506020820151816001015560408201518160020160006101000a81548173ffffffffffffffffffffffffffffffffffffffff021916908373ffffffffffffffffffffffffffffffffffffffff16021790555060608201518160030160006101000a81548173ffffffffffffffffffffffffffffffffffffffff021916908373ffffffffffffffffffffffffffffffffffffffff160217905550905050600080815480929190610879906110a3565b91905055508073ffffffffffffffffffffffffffffffffffffffff166108fc349081150290604051600060405180830381858888f193505050501580156108c4573d6000803e3d6000fd5b505050565b60405180608001604052806060815260200160008152602001600073ffffffffffffffffffffffffffffffffffffffff168152602001600073ffffffffffffffffffffffffffffffffffffffff1681525090565b82805461092990611013565b90600052602060002090601f01602090048101928261094b5760008555610992565b82601f1061096457805160ff1916838001178555610992565b82800160010185558215610992579182015b82811115610991578251825591602001919060010190610976565b5b50905061099f91906109a3565b5090565b5b808211156109bc5760008160009055506001016109a4565b5090565b6000604051905090565b600080fd5b600080fd5b6000819050919050565b6109e7816109d4565b81146109f257600080fd5b50565b600081359050610a04816109de565b92915050565b600060208284031215610a2057610a1f6109ca565b5b6000610a2e848285016109f5565b91505092915050565b600081519050919050565b600082825260208201905092915050565b60005b83811015610a71578082015181840152602081019050610a56565b83811115610a80576000848401525b50505050565b6000601f19601f8301169050919050565b6000610aa282610a37565b610aac8185610a42565b9350610abc818560208601610a53565b610ac581610a86565b840191505092915050565b610ad9816109d4565b82525050565b600073ffffffffffffffffffffffffffffffffffffffff82169050919050565b6000610b0a82610adf565b9050919050565b610b1a81610aff565b82525050565b60006080830160008301518482036000860152610b3d8282610a97565b9150506020830151610b526020860182610ad0565b506040830151610b656040860182610b11565b506060830151610b786060860182610b11565b508091505092915050565b60006020820190508181036000830152610b9d8184610b20565b905092915050565b600082825260208201905092915050565b6000610bc182610a37565b610bcb8185610ba5565b9350610bdb818560208601610a53565b610be481610a86565b840191505092915050565b610bf8816109d4565b82525050565b610c0781610aff565b82525050565b60006080820190508181036000830152610c278187610bb6565b9050610c366020830186610bef565b610c436040830185610bfe565b610c506060830184610bfe565b95945050505050565b600081519050919050565b600082825260208201905092915050565b6000819050602082019050919050565b60006080830160008301518482036000860152610ca28282610a97565b9150506020830151610cb76020860182610ad0565b506040830151610cca6040860182610b11565b506060830151610cdd6060860182610b11565b508091505092915050565b6000610cf48383610c85565b905092915050565b6000602082019050919050565b6000610d1482610c59565b610d1e8185610c64565b935083602082028501610d3085610c75565b8060005b85811015610d6c5784840389528151610d4d8582610ce8565b9450610d5883610cfc565b925060208a01995050600181019050610d34565b50829750879550505050505092915050565b60006020820190508181036000830152610d988184610d09565b905092915050565b6000602082019050610db56000830184610bef565b92915050565b600080fd5b600080fd5b7f4e487b7100000000000000000000000000000000000000000000000000000000600052604160045260246000fd5b610dfd82610a86565b810181811067ffffffffffffffff82111715610e1c57610e1b610dc5565b5b80604052505050565b6000610e2f6109c0565b9050610e3b8282610df4565b919050565b600067ffffffffffffffff821115610e5b57610e5a610dc5565b5b610e6482610a86565b9050602081019050919050565b82818337600083830152505050565b6000610e93610e8e84610e40565b610e25565b905082815260208101848484011115610eaf57610eae610dc0565b5b610eba848285610e71565b509392505050565b600082601f830112610ed757610ed6610dbb565b5b8135610ee7848260208601610e80565b91505092915050565b610ef981610aff565b8114610f0457600080fd5b50565b600081359050610f1681610ef0565b92915050565b60008060408385031215610f3357610f326109ca565b5b600083013567ffffffffffffffff811115610f5157610f506109cf565b5b610f5d85828601610ec2565b9250506020610f6e85828601610f07565b9150509250929050565b7f43616e6e6f74207769746864726177206d6f7265207468616e20314554480000600082015250565b6000610fae601e83610ba5565b9150610fb982610f78565b602082019050919050565b60006020820190508181036000830152610fdd81610fa1565b9050919050565b7f4e487b7100000000000000000000000000000000000000000000000000000000600052602260045260246000fd5b6000600282049050600182168061102b57607f821691505b6020821081141561103f5761103e610fe4565b5b50919050565b7f4e487b7100000000000000000000000000000000000000000000000000000000600052603260045260246000fd5b7f4e487b7100000000000000000000000000000000000000000000000000000000600052601160045260246000fd5b60006110ae826109d4565b91507fffffffffffffffffffffffffffffffffffffffffffffffffffffffffffffffff8214156110e1576110e0611074565b5b60018201905091905056fea26469706673582212205e78195007a684176ae5292a019c70f30004ba957ed2fad637987c294b67916e64736f6c634300080b0033",
  "immutableReferences": {},
  "source": "// SPDX-License-Identifier: MIT\r\npragma solidity >=0.4.22 <0.9.0;\r\n\r\ncontract ManagerOgani {\r\n    uint public transactionCount;\r\n    mapping (uint => PaymentObject) public listPayments;\r\n    struct PaymentObject {\r\n        string idProduct;\r\n        uint256 totalPayment;\r\n        address supplier;\r\n        address currentAdmin;\r\n    } \r\n\r\n    function transferToSupplier(string memory _idProduct, address _supplier) public payable {\r\n        listPayments[transactionCount] = PaymentObject(_idProduct,msg.value,_supplier,msg.sender);\r\n        transactionCount++;\r\n        payable(_supplier).transfer(msg.value);\r\n    }\r\n    function  getTransaction(uint256 index) public view returns (PaymentObject memory){\r\n        PaymentObject[]    memory listTransaction = new PaymentObject[](transactionCount);\r\n        for (uint i = 0; i < transactionCount; i++) {\r\n            PaymentObject storage currentObject = listPayments[i];\r\n            listTransaction[i] = currentObject;\r\n        }\r\n        return listTransaction[index];\r\n    }\r\n    function getAllTransaction () public view returns (PaymentObject[] memory){\r\n         PaymentObject[]  memory listTransaction = new PaymentObject[](transactionCount);\r\n        for (uint i = 0; i < transactionCount; i++) {\r\n            PaymentObject storage currentObject = listPayments[i];\r\n            listTransaction[i] = currentObject;\r\n        }\r\n        return listTransaction;\r\n    }\r\n    \r\n\r\n    \r\n    receive() external payable {}\r\n\r\n    function withdraw(uint256 withdrawAmount)\r\n        external\r\n        limitWithdraw(withdrawAmount)\r\n    {\r\n       payable(msg.sender).transfer(withdrawAmount);\r\n    }\r\n\r\n    modifier limitWithdraw(uint256 withdrawAmount) {\r\n        require(\r\n            withdrawAmount <= 1 * (10**18),\r\n            \"Cannot withdraw more than 1ETH\"\r\n        );\r\n\r\n        _;\r\n    }\r\n}",
  "sourcePath": "C:\\Users\\nguye\\OneDrive\\Desktop\\Ecommerce-Blockchain\\client\\contracts\\ManagerOgani.sol",
  "compiler": {
    "name": "solc",
    "version": "0.8.11+commit.d7f03943.Emscripten.clang"
  },
  "schemaVersion": "3.4.4",
  "updatedAt": "2022-03-19T11:19:53.047Z",
  "networkType": "ethereum",
  "devdoc": {
    "kind": "dev",
    "methods": {},
    "version": 1
  },
  "userdoc": {
    "kind": "user",
    "methods": {},
    "version": 1
  }
}