{
  "contractName": "ManagerOgani",
  "abi": [
    {
      "stateMutability": "payable",
      "type": "fallback",
      "payable": true
    },
    {
      "inputs": [
        {
          "internalType": "uint256",
          "name": "",
          "type": "uint256"
        }
      ],
      "name": "AddressUsers",
      "outputs": [
        {
          "internalType": "address",
          "name": "",
          "type": "address"
        }
      ],
      "stateMutability": "view",
      "type": "function",
      "constant": true
    },
    {
      "inputs": [
        {
          "internalType": "address",
          "name": "",
          "type": "address"
        }
      ],
      "name": "IndexUsers",
      "outputs": [
        {
          "internalType": "uint256",
          "name": "",
          "type": "uint256"
        }
      ],
      "stateMutability": "view",
      "type": "function",
      "constant": true
    },
    {
      "inputs": [
        {
          "internalType": "address",
          "name": "",
          "type": "address"
        }
      ],
      "name": "includeUser",
      "outputs": [
        {
          "internalType": "bool",
          "name": "",
          "type": "bool"
        }
      ],
      "stateMutability": "view",
      "type": "function",
      "constant": true
    },
    {
      "inputs": [
        {
          "internalType": "uint256",
          "name": "",
          "type": "uint256"
        }
      ],
      "name": "listPayments",
      "outputs": [
        {
          "internalType": "string",
          "name": "idProduct",
          "type": "string"
        },
        {
          "internalType": "uint256",
          "name": "totalPayment",
          "type": "uint256"
        },
        {
          "internalType": "address",
          "name": "supplier",
          "type": "address"
        },
        {
          "internalType": "address",
          "name": "currentAdmin",
          "type": "address"
        }
      ],
      "stateMutability": "view",
      "type": "function",
      "constant": true
    },
    {
      "inputs": [
        {
          "internalType": "uint256",
          "name": "",
          "type": "uint256"
        }
      ],
      "name": "listUserOrder",
      "outputs": [
        {
          "internalType": "string",
          "name": "idOrder",
          "type": "string"
        },
        {
          "internalType": "uint256",
          "name": "totalPayment",
          "type": "uint256"
        },
        {
          "internalType": "address",
          "name": "userAddress",
          "type": "address"
        }
      ],
      "stateMutability": "view",
      "type": "function",
      "constant": true
    },
    {
      "inputs": [],
      "name": "orderNumber",
      "outputs": [
        {
          "internalType": "uint256",
          "name": "",
          "type": "uint256"
        }
      ],
      "stateMutability": "view",
      "type": "function",
      "constant": true
    },
    {
      "inputs": [],
      "name": "transactionCount",
      "outputs": [
        {
          "internalType": "uint256",
          "name": "",
          "type": "uint256"
        }
      ],
      "stateMutability": "view",
      "type": "function",
      "constant": true
    },
    {
      "stateMutability": "payable",
      "type": "receive",
      "payable": true
    },
    {
      "inputs": [],
      "name": "getBalance",
      "outputs": [
        {
          "internalType": "uint256",
          "name": "",
          "type": "uint256"
        }
      ],
      "stateMutability": "view",
      "type": "function",
      "constant": true
    },
    {
      "inputs": [
        {
          "internalType": "string",
          "name": "_idOrder",
          "type": "string"
        }
      ],
      "name": "userPaymentOrder",
      "outputs": [],
      "stateMutability": "payable",
      "type": "function",
      "payable": true
    },
    {
      "inputs": [],
      "name": "getAllPaymentOrder",
      "outputs": [
        {
          "components": [
            {
              "internalType": "string",
              "name": "idOrder",
              "type": "string"
            },
            {
              "internalType": "uint256",
              "name": "totalPayment",
              "type": "uint256"
            },
            {
              "internalType": "address",
              "name": "userAddress",
              "type": "address"
            }
          ],
          "internalType": "struct ManagerOgani.UserPayment[]",
          "name": "",
          "type": "tuple[]"
        }
      ],
      "stateMutability": "view",
      "type": "function",
      "constant": true
    },
    {
      "inputs": [
        {
          "internalType": "string",
          "name": "_idProduct",
          "type": "string"
        },
        {
          "internalType": "address",
          "name": "_supplier",
          "type": "address"
        }
      ],
      "name": "transferToSupplier",
      "outputs": [],
      "stateMutability": "payable",
      "type": "function",
      "payable": true
    },
    {
      "inputs": [
        {
          "internalType": "uint256",
          "name": "index",
          "type": "uint256"
        }
      ],
      "name": "getTransaction",
      "outputs": [
        {
          "components": [
            {
              "internalType": "string",
              "name": "idProduct",
              "type": "string"
            },
            {
              "internalType": "uint256",
              "name": "totalPayment",
              "type": "uint256"
            },
            {
              "internalType": "address",
              "name": "supplier",
              "type": "address"
            },
            {
              "internalType": "address",
              "name": "currentAdmin",
              "type": "address"
            }
          ],
          "internalType": "struct ManagerOgani.PaymentObject",
          "name": "",
          "type": "tuple"
        }
      ],
      "stateMutability": "view",
      "type": "function",
      "constant": true
    },
    {
      "inputs": [],
      "name": "getAllTransaction",
      "outputs": [
        {
          "components": [
            {
              "internalType": "string",
              "name": "idProduct",
              "type": "string"
            },
            {
              "internalType": "uint256",
              "name": "totalPayment",
              "type": "uint256"
            },
            {
              "internalType": "address",
              "name": "supplier",
              "type": "address"
            },
            {
              "internalType": "address",
              "name": "currentAdmin",
              "type": "address"
            }
          ],
          "internalType": "struct ManagerOgani.PaymentObject[]",
          "name": "",
          "type": "tuple[]"
        }
      ],
      "stateMutability": "view",
      "type": "function",
      "constant": true
    },
    {
      "inputs": [
        {
          "internalType": "address",
          "name": "_to",
          "type": "address"
        }
      ],
      "name": "withdraw",
      "outputs": [],
      "stateMutability": "payable",
      "type": "function",
      "payable": true
    },
    {
      "inputs": [
        {
          "internalType": "address payable",
          "name": "_to",
          "type": "address"
        }
      ],
      "name": "withdrawMoneyTo",
      "outputs": [],
      "stateMutability": "nonpayable",
      "type": "function"
    }
  ],
  "bytecode": "0x608060405234801561001057600080fd5b50611c13806100206000396000f3fe6080604052600436106100ec5760003560e01c806399013e941161008a578063b74afc8e11610059578063b74afc8e1461030d578063b77bf6001461034a578063bb015a4014610375578063fd73ca1e14610391576100f3565b806399013e941461023b5780639f0673fe1461027a578063add6415d146102b7578063b04dd81b146102e2576100f3565b806333ea3dc8116100c657806333ea3dc81461018657806351cff8d9146101c357806365077a98146101df5780638d3c8ab6146101fb576100f3565b806306e2bbe3146100f55780630ff8d8a51461013257806312065fe01461015b576100f3565b366100f357005b005b34801561010157600080fd5b5061011c600480360381019061011791906112c3565b6103bc565b6040516101299190611331565b60405180910390f35b34801561013e57600080fd5b506101596004803603810190610154919061138a565b6103ef565b005b34801561016757600080fd5b50610170610440565b60405161017d91906113c6565b60405180910390f35b34801561019257600080fd5b506101ad60048036038101906101a891906112c3565b610448565b6040516101ba91906114fb565b60405180910390f35b6101dd60048036038101906101d89190611549565b610677565b005b6101f960048036038101906101f491906116ab565b6106c1565b005b34801561020757600080fd5b50610222600480360381019061021d91906112c3565b6109fd565b604051610232949392919061173e565b60405180910390f35b34801561024757600080fd5b50610262600480360381019061025d91906112c3565b610af5565b6040516102719392919061178a565b60405180910390f35b34801561028657600080fd5b506102a1600480360381019061029c9190611549565b610bc7565b6040516102ae91906113c6565b60405180910390f35b3480156102c357600080fd5b506102cc610bdf565b6040516102d991906118ed565b60405180910390f35b3480156102ee57600080fd5b506102f7610dec565b60405161030491906113c6565b60405180910390f35b34801561031957600080fd5b50610334600480360381019061032f9190611549565b610df2565b604051610341919061192a565b60405180910390f35b34801561035657600080fd5b5061035f610e12565b60405161036c91906113c6565b60405180910390f35b61038f600480360381019061038a9190611945565b610e18565b005b34801561039d57600080fd5b506103a6610f93565b6040516103b39190611ab3565b60405180910390f35b60056020528060005260406000206000915054906101000a900473ffffffffffffffffffffffffffffffffffffffff1681565b8073ffffffffffffffffffffffffffffffffffffffff166108fc610411610440565b9081150290604051600060405180830381858888f1935050505015801561043c573d6000803e3d6000fd5b5050565b600047905090565b61045061114b565b6000805467ffffffffffffffff81111561046d5761046c611580565b5b6040519080825280602002602001820160405280156104a657816020015b61049361114b565b81526020019060019003908161048b5790505b50905060005b600054811015610653576000600260008381526020019081526020016000209050806040518060800160405290816000820180546104e990611b04565b80601f016020809104026020016040519081016040528092919081815260200182805461051590611b04565b80156105625780601f1061053757610100808354040283529160200191610562565b820191906000526020600020905b81548152906001019060200180831161054557829003601f168201915b50505050508152602001600182015481526020016002820160009054906101000a900473ffffffffffffffffffffffffffffffffffffffff1673ffffffffffffffffffffffffffffffffffffffff1673ffffffffffffffffffffffffffffffffffffffff1681526020016003820160009054906101000a900473ffffffffffffffffffffffffffffffffffffffff1673ffffffffffffffffffffffffffffffffffffffff1673ffffffffffffffffffffffffffffffffffffffff168152505083838151811061063457610633611b36565b5b602002602001018190525050808061064b90611b94565b9150506104ac565b5080838151811061066757610666611b36565b5b6020026020010151915050919050565b8073ffffffffffffffffffffffffffffffffffffffff166108fc349081150290604051600060405180830381858888f193505050501580156106bd573d6000803e3d6000fd5b5050565b600060405180606001604052808381526020013481526020013373ffffffffffffffffffffffffffffffffffffffff168152509050600660003373ffffffffffffffffffffffffffffffffffffffff1673ffffffffffffffffffffffffffffffffffffffff16815260200190815260200160002060009054906101000a900460ff166108db5760006001600081548092919061075c90611b94565b9190505590506001600660003373ffffffffffffffffffffffffffffffffffffffff1673ffffffffffffffffffffffffffffffffffffffff16815260200190815260200160002060006101000a81548160ff02191690831515021790555080600460003373ffffffffffffffffffffffffffffffffffffffff1673ffffffffffffffffffffffffffffffffffffffff16815260200190815260200160002081905550336005600083815260200190815260200160002060006101000a81548173ffffffffffffffffffffffffffffffffffffffff021916908373ffffffffffffffffffffffffffffffffffffffff1602179055508160036000838152602001908152602001600020600082015181600001908051906020019061088092919061119f565b506020820151816001015560408201518160020160006101000a81548173ffffffffffffffffffffffffffffffffffffffff021916908373ffffffffffffffffffffffffffffffffffffffff160217905550905050506109f9565b600080600090505b6001548110156109715760006005600083815260200190815260200160002060009054906101000a900473ffffffffffffffffffffffffffffffffffffffff1690503373ffffffffffffffffffffffffffffffffffffffff168173ffffffffffffffffffffffffffffffffffffffff16141561095d578192505b50808061096990611b94565b9150506108e3565b50816003600083815260200190815260200160002060008201518160000190805190602001906109a292919061119f565b506020820151816001015560408201518160020160006101000a81548173ffffffffffffffffffffffffffffffffffffffff021916908373ffffffffffffffffffffffffffffffffffffffff160217905550905050505b5050565b6002602052806000526040600020600091509050806000018054610a2090611b04565b80601f0160208091040260200160405190810160405280929190818152602001828054610a4c90611b04565b8015610a995780601f10610a6e57610100808354040283529160200191610a99565b820191906000526020600020905b815481529060010190602001808311610a7c57829003601f168201915b5050505050908060010154908060020160009054906101000a900473ffffffffffffffffffffffffffffffffffffffff16908060030160009054906101000a900473ffffffffffffffffffffffffffffffffffffffff16905084565b6003602052806000526040600020600091509050806000018054610b1890611b04565b80601f0160208091040260200160405190810160405280929190818152602001828054610b4490611b04565b8015610b915780601f10610b6657610100808354040283529160200191610b91565b820191906000526020600020905b815481529060010190602001808311610b7457829003601f168201915b5050505050908060010154908060020160009054906101000a900473ffffffffffffffffffffffffffffffffffffffff16905083565b60046020528060005260406000206000915090505481565b60606000805467ffffffffffffffff811115610bfe57610bfd611580565b5b604051908082528060200260200182016040528015610c3757816020015b610c2461114b565b815260200190600190039081610c1c5790505b50905060005b600054811015610de457600060026000838152602001908152602001600020905080604051806080016040529081600082018054610c7a90611b04565b80601f0160208091040260200160405190810160405280929190818152602001828054610ca690611b04565b8015610cf35780601f10610cc857610100808354040283529160200191610cf3565b820191906000526020600020905b815481529060010190602001808311610cd657829003601f168201915b50505050508152602001600182015481526020016002820160009054906101000a900473ffffffffffffffffffffffffffffffffffffffff1673ffffffffffffffffffffffffffffffffffffffff1673ffffffffffffffffffffffffffffffffffffffff1681526020016003820160009054906101000a900473ffffffffffffffffffffffffffffffffffffffff1673ffffffffffffffffffffffffffffffffffffffff1673ffffffffffffffffffffffffffffffffffffffff1681525050838381518110610dc557610dc4611b36565b5b6020026020010181905250508080610ddc90611b94565b915050610c3d565b508091505090565b60015481565b60066020528060005260406000206000915054906101000a900460ff1681565b60005481565b60405180608001604052808381526020013481526020018273ffffffffffffffffffffffffffffffffffffffff1681526020013373ffffffffffffffffffffffffffffffffffffffff1681525060026000805481526020019081526020016000206000820151816000019080519060200190610e9592919061119f565b506020820151816001015560408201518160020160006101000a81548173ffffffffffffffffffffffffffffffffffffffff021916908373ffffffffffffffffffffffffffffffffffffffff16021790555060608201518160030160006101000a81548173ffffffffffffffffffffffffffffffffffffffff021916908373ffffffffffffffffffffffffffffffffffffffff160217905550905050600080815480929190610f4390611b94565b91905055508073ffffffffffffffffffffffffffffffffffffffff166108fc349081150290604051600060405180830381858888f19350505050158015610f8e573d6000803e3d6000fd5b505050565b6060600060015467ffffffffffffffff811115610fb357610fb2611580565b5b604051908082528060200260200182016040528015610fec57816020015b610fd9611225565b815260200190600190039081610fd15790505b50905060005b6001548110156111435760006003600083815260200190815260200160002090508060405180606001604052908160008201805461102f90611b04565b80601f016020809104026020016040519081016040528092919081815260200182805461105b90611b04565b80156110a85780601f1061107d576101008083540402835291602001916110a8565b820191906000526020600020905b81548152906001019060200180831161108b57829003601f168201915b50505050508152602001600182015481526020016002820160009054906101000a900473ffffffffffffffffffffffffffffffffffffffff1673ffffffffffffffffffffffffffffffffffffffff1673ffffffffffffffffffffffffffffffffffffffff168152505083838151811061112457611123611b36565b5b602002602001018190525050808061113b90611b94565b915050610ff2565b508091505090565b60405180608001604052806060815260200160008152602001600073ffffffffffffffffffffffffffffffffffffffff168152602001600073ffffffffffffffffffffffffffffffffffffffff1681525090565b8280546111ab90611b04565b90600052602060002090601f0160209004810192826111cd5760008555611214565b82601f106111e657805160ff1916838001178555611214565b82800160010185558215611214579182015b828111156112135782518255916020019190600101906111f8565b5b509050611221919061125c565b5090565b60405180606001604052806060815260200160008152602001600073ffffffffffffffffffffffffffffffffffffffff1681525090565b5b8082111561127557600081600090555060010161125d565b5090565b6000604051905090565b600080fd5b600080fd5b6000819050919050565b6112a08161128d565b81146112ab57600080fd5b50565b6000813590506112bd81611297565b92915050565b6000602082840312156112d9576112d8611283565b5b60006112e7848285016112ae565b91505092915050565b600073ffffffffffffffffffffffffffffffffffffffff82169050919050565b600061131b826112f0565b9050919050565b61132b81611310565b82525050565b60006020820190506113466000830184611322565b92915050565b6000611357826112f0565b9050919050565b6113678161134c565b811461137257600080fd5b50565b6000813590506113848161135e565b92915050565b6000602082840312156113a05761139f611283565b5b60006113ae84828501611375565b91505092915050565b6113c08161128d565b82525050565b60006020820190506113db60008301846113b7565b92915050565b600081519050919050565b600082825260208201905092915050565b60005b8381101561141b578082015181840152602081019050611400565b8381111561142a576000848401525b50505050565b6000601f19601f8301169050919050565b600061144c826113e1565b61145681856113ec565b93506114668185602086016113fd565b61146f81611430565b840191505092915050565b6114838161128d565b82525050565b61149281611310565b82525050565b600060808301600083015184820360008601526114b58282611441565b91505060208301516114ca602086018261147a565b5060408301516114dd6040860182611489565b5060608301516114f06060860182611489565b508091505092915050565b600060208201905081810360008301526115158184611498565b905092915050565b61152681611310565b811461153157600080fd5b50565b6000813590506115438161151d565b92915050565b60006020828403121561155f5761155e611283565b5b600061156d84828501611534565b91505092915050565b600080fd5b600080fd5b7f4e487b7100000000000000000000000000000000000000000000000000000000600052604160045260246000fd5b6115b882611430565b810181811067ffffffffffffffff821117156115d7576115d6611580565b5b80604052505050565b60006115ea611279565b90506115f682826115af565b919050565b600067ffffffffffffffff82111561161657611615611580565b5b61161f82611430565b9050602081019050919050565b82818337600083830152505050565b600061164e611649846115fb565b6115e0565b90508281526020810184848401111561166a5761166961157b565b5b61167584828561162c565b509392505050565b600082601f83011261169257611691611576565b5b81356116a284826020860161163b565b91505092915050565b6000602082840312156116c1576116c0611283565b5b600082013567ffffffffffffffff8111156116df576116de611288565b5b6116eb8482850161167d565b91505092915050565b600082825260208201905092915050565b6000611710826113e1565b61171a81856116f4565b935061172a8185602086016113fd565b61173381611430565b840191505092915050565b600060808201905081810360008301526117588187611705565b905061176760208301866113b7565b6117746040830185611322565b6117816060830184611322565b95945050505050565b600060608201905081810360008301526117a48186611705565b90506117b360208301856113b7565b6117c06040830184611322565b949350505050565b600081519050919050565b600082825260208201905092915050565b6000819050602082019050919050565b600060808301600083015184820360008601526118118282611441565b9150506020830151611826602086018261147a565b5060408301516118396040860182611489565b50606083015161184c6060860182611489565b508091505092915050565b600061186383836117f4565b905092915050565b6000602082019050919050565b6000611883826117c8565b61188d81856117d3565b93508360208202850161189f856117e4565b8060005b858110156118db57848403895281516118bc8582611857565b94506118c78361186b565b925060208a019950506001810190506118a3565b50829750879550505050505092915050565b600060208201905081810360008301526119078184611878565b905092915050565b60008115159050919050565b6119248161190f565b82525050565b600060208201905061193f600083018461191b565b92915050565b6000806040838503121561195c5761195b611283565b5b600083013567ffffffffffffffff81111561197a57611979611288565b5b6119868582860161167d565b925050602061199785828601611534565b9150509250929050565b600081519050919050565b600082825260208201905092915050565b6000819050602082019050919050565b600060608301600083015184820360008601526119ea8282611441565b91505060208301516119ff602086018261147a565b506040830151611a126040860182611489565b508091505092915050565b6000611a2983836119cd565b905092915050565b6000602082019050919050565b6000611a49826119a1565b611a5381856119ac565b935083602082028501611a65856119bd565b8060005b85811015611aa15784840389528151611a828582611a1d565b9450611a8d83611a31565b925060208a01995050600181019050611a69565b50829750879550505050505092915050565b60006020820190508181036000830152611acd8184611a3e565b905092915050565b7f4e487b7100000000000000000000000000000000000000000000000000000000600052602260045260246000fd5b60006002820490506001821680611b1c57607f821691505b60208210811415611b3057611b2f611ad5565b5b50919050565b7f4e487b7100000000000000000000000000000000000000000000000000000000600052603260045260246000fd5b7f4e487b7100000000000000000000000000000000000000000000000000000000600052601160045260246000fd5b6000611b9f8261128d565b91507fffffffffffffffffffffffffffffffffffffffffffffffffffffffffffffffff821415611bd257611bd1611b65565b5b60018201905091905056fea264697066735822122063968f4d9045a30ded00d490de6fc21a7219080ce1b9b78a966cd33fb182d9f264736f6c634300080b0033",
  "immutableReferences": {},
  "source": "// SPDX-License-Identifier: MIT\r\npragma solidity >=0.4.22 <0.9.0;\r\n\r\ncontract ManagerOgani {\r\n    uint256 public transactionCount;\r\n    uint256 public orderNumber;\r\n    mapping (uint => PaymentObject) public listPayments;\r\n    mapping (uint => UserPayment) public listUserOrder;\r\n    mapping (address => uint256) public IndexUsers;\r\n    mapping (uint256 => address) public AddressUsers;\r\n    mapping (address => bool) public includeUser;\r\n    receive() external payable {}\r\n    fallback() external payable {}\r\n    struct PaymentObject {\r\n        string idProduct;\r\n        uint256 totalPayment;\r\n        address supplier;\r\n        address currentAdmin;\r\n    } \r\n    struct UserPayment{\r\n        string idOrder;\r\n        uint256 totalPayment;\r\n        address userAddress;\r\n    }\r\n    function getBalance() public view returns(uint) {\r\n        return address(this).balance;\r\n    }\r\n    function userPaymentOrder(string memory _idOrder) public payable {\r\n       UserPayment memory newUserOrder = UserPayment({\r\n            idOrder: _idOrder,\r\n            totalPayment: msg.value,\r\n            userAddress: msg.sender\r\n        });\r\n        if(!includeUser[msg.sender]){\r\n            uint256 index = orderNumber++;\r\n            includeUser[msg.sender] = true;\r\n            IndexUsers[msg.sender] = index;\r\n            AddressUsers[index]= msg.sender;\r\n            listUserOrder[index] = newUserOrder;\r\n        }else{\r\n            uint256 IndexUser;\r\n            for (uint i = 0; i < orderNumber; i++) {\r\n               address findIndexuser = AddressUsers[i];\r\n               if(findIndexuser == msg.sender){\r\n                    IndexUser= i;\r\n               }\r\n            }\r\n            listUserOrder[IndexUser]= newUserOrder ;\r\n        }\r\n       \r\n    }\r\n    // function getPaymentOrderUser() public view returns (UserPayment[] memory){\r\n    //     UserPayment[]  memory listOrder  = new UserPayment[](orderNumber);\r\n    //     for (uint i = 0; i < orderNumber; i++) {\r\n    //        uint currentUser  = listUser[msg.sender];\r\n    //        if(currentUser == i)\r\n    //        { \r\n    //         UserPayment storage currentObject = listUserOrder[i];\r\n    //         listOrder[i] = currentObject;\r\n    //        }\r\n    //     }\r\n    //     return listOrder;\r\n    // }\r\n    function getAllPaymentOrder() public view returns (UserPayment[] memory){\r\n        UserPayment[]  memory listOrder  = new UserPayment[](orderNumber);\r\n        for (uint i = 0; i < orderNumber; i++) {\r\n            UserPayment storage currentObject = listUserOrder[i];\r\n            listOrder[i]= currentObject;\r\n        }\r\n        return listOrder;\r\n    }\r\n   \r\n    \r\n    function transferToSupplier(string memory _idProduct, address _supplier) public payable {\r\n        listPayments[transactionCount] = PaymentObject(_idProduct,msg.value,_supplier,msg.sender);\r\n        transactionCount++;\r\n        payable(_supplier).transfer(msg.value);\r\n    }\r\n    function  getTransaction(uint256 index) public view returns (PaymentObject memory){\r\n        PaymentObject[]    memory listTransaction = new PaymentObject[](transactionCount);\r\n        for (uint i = 0; i < transactionCount; i++) {\r\n            PaymentObject storage currentObject = listPayments[i];\r\n            listTransaction[i] = currentObject;\r\n        }\r\n        return listTransaction[index];\r\n    }\r\n    function getAllTransaction () public view returns (PaymentObject[] memory){\r\n        PaymentObject[]  memory listTransaction = new PaymentObject[](transactionCount);\r\n        for (uint i = 0; i < transactionCount; i++) {\r\n            PaymentObject storage currentObject = listPayments[i];\r\n            listTransaction[i] = currentObject;\r\n        }\r\n        return listTransaction;\r\n    }\r\n    \r\n    \r\n    function withdraw(address _to) external payable{\r\n        payable(_to).transfer(msg.value);\r\n    }\r\n    function withdrawMoneyTo(address payable _to) public {\r\n        _to.transfer(getBalance());\r\n    }\r\n    \r\n}",
  "sourcePath": "C:\\Users\\nguye\\OneDrive\\Desktop\\Ecommerce-Blockchain\\client\\contracts\\ManagerOgani.sol",
  "compiler": {
    "name": "solc",
    "version": "0.8.11+commit.d7f03943.Emscripten.clang"
  },
  "schemaVersion": "3.4.4",
  "updatedAt": "2022-03-23T08:05:25.523Z",
  "networkType": "ethereum",
  "devdoc": {
    "kind": "dev",
    "methods": {},
    "version": 1
  },
  "userdoc": {
    "kind": "user",
    "methods": {},
    "version": 1
  }
}