{
  "contractName": "Ownable",
  "abi": [
    {
      "inputs": [],
      "stateMutability": "nonpayable",
      "type": "constructor"
    },
    {
      "anonymous": false,
      "inputs": [
        {
          "indexed": true,
          "internalType": "address",
          "name": "previousOwner",
          "type": "address"
        },
        {
          "indexed": true,
          "internalType": "address",
          "name": "newOwner",
          "type": "address"
        }
      ],
      "name": "OwnershipTransferred",
      "type": "event"
    },
    {
      "inputs": [
        {
          "internalType": "uint256",
          "name": "",
          "type": "uint256"
        }
      ],
      "name": "managementAddress",
      "outputs": [
        {
          "internalType": "address",
          "name": "",
          "type": "address"
        }
      ],
      "stateMutability": "view",
      "type": "function"
    },
    {
      "inputs": [
        {
          "internalType": "address",
          "name": "",
          "type": "address"
        }
      ],
      "name": "managementList",
      "outputs": [
        {
          "internalType": "bool",
          "name": "",
          "type": "bool"
        }
      ],
      "stateMutability": "view",
      "type": "function"
    },
    {
      "inputs": [],
      "name": "numberOfManager",
      "outputs": [
        {
          "internalType": "uint256",
          "name": "",
          "type": "uint256"
        }
      ],
      "stateMutability": "view",
      "type": "function"
    },
    {
      "inputs": [],
      "name": "owner",
      "outputs": [
        {
          "internalType": "address",
          "name": "",
          "type": "address"
        }
      ],
      "stateMutability": "view",
      "type": "function"
    },
    {
      "inputs": [],
      "name": "isOwner",
      "outputs": [
        {
          "internalType": "bool",
          "name": "",
          "type": "bool"
        }
      ],
      "stateMutability": "view",
      "type": "function"
    },
    {
      "inputs": [],
      "name": "renounceOwnership",
      "outputs": [],
      "stateMutability": "nonpayable",
      "type": "function"
    },
    {
      "inputs": [
        {
          "internalType": "address",
          "name": "newOwner",
          "type": "address"
        }
      ],
      "name": "transferOwnership",
      "outputs": [],
      "stateMutability": "nonpayable",
      "type": "function"
    },
    {
      "inputs": [
        {
          "internalType": "address",
          "name": "newManager",
          "type": "address"
        }
      ],
      "name": "addManager",
      "outputs": [],
      "stateMutability": "nonpayable",
      "type": "function"
    },
    {
      "inputs": [],
      "name": "getAllManagement",
      "outputs": [
        {
          "internalType": "address[]",
          "name": "",
          "type": "address[]"
        }
      ],
      "stateMutability": "view",
      "type": "function"
    }
  ],
  "bytecode": "0x608060405234801561001057600080fd5b50336000806101000a81548173ffffffffffffffffffffffffffffffffffffffff021916908373ffffffffffffffffffffffffffffffffffffffff160217905550610060336100e060201b60201c565b60008054906101000a900473ffffffffffffffffffffffffffffffffffffffff1673ffffffffffffffffffffffffffffffffffffffff16600073ffffffffffffffffffffffffffffffffffffffff167f8be0079c531659141344cd1fd0a4f28419497f9722a3daafe3b4186f6b6457e060405160405180910390a361034c565b6100ee6101f660201b60201c565b61012d576040517f08c379a0000000000000000000000000000000000000000000000000000000008152600401610124906102aa565b60405180910390fd5b60006003600081548092919061014290610303565b919050559050816001600083815260200190815260200160002060006101000a81548173ffffffffffffffffffffffffffffffffffffffff021916908373ffffffffffffffffffffffffffffffffffffffff1602179055506001600260008473ffffffffffffffffffffffffffffffffffffffff1673ffffffffffffffffffffffffffffffffffffffff16815260200190815260200160002060006101000a81548160ff0219169083151502179055505050565b60008060009054906101000a900473ffffffffffffffffffffffffffffffffffffffff1673ffffffffffffffffffffffffffffffffffffffff163373ffffffffffffffffffffffffffffffffffffffff1614905090565b600082825260208201905092915050565b7f53656e646572206e6f7420617574686f72697a65642e00000000000000000000600082015250565b600061029460168361024d565b915061029f8261025e565b602082019050919050565b600060208201905081810360008301526102c381610287565b9050919050565b7f4e487b7100000000000000000000000000000000000000000000000000000000600052601160045260246000fd5b6000819050919050565b600061030e826102f9565b91507fffffffffffffffffffffffffffffffffffffffffffffffffffffffffffffffff821415610341576103406102ca565b5b600182019050919050565b610ad0806200035c6000396000f3fe608060405234801561001057600080fd5b50600436106100935760003560e01c8063894a89ed11610066578063894a89ed146100fa5780638da5cb5b1461012a5780638f32d59b146101485780639a91f37514610166578063f2fde38b1461019657610093565b80631020c6ab146100985780632d06177a146100b65780634efc7866146100d2578063715018a6146100f0575b600080fd5b6100a06101b2565b6040516100ad91906107da565b60405180910390f35b6100d060048036038101906100cb919061082d565b6102b2565b005b6100da6103c2565b6040516100e79190610873565b60405180910390f35b6100f86103c8565b005b610114600480360381019061010f919061082d565b6104cd565b60405161012191906108a9565b60405180910390f35b6101326104ed565b60405161013f91906108d3565b60405180910390f35b610150610516565b60405161015d91906108a9565b60405180910390f35b610180600480360381019061017b919061091a565b61056d565b60405161018d91906108d3565b60405180910390f35b6101b060048036038101906101ab919061082d565b6105a0565b005b6060600060035467ffffffffffffffff8111156101d2576101d1610947565b5b6040519080825280602002602001820160405280156102005781602001602082028036833780820191505090505b50905060005b6003548110156102aa5760006001600083815260200190815260200160002060009054906101000a900473ffffffffffffffffffffffffffffffffffffffff1690508083838151811061025c5761025b610976565b5b602002602001019073ffffffffffffffffffffffffffffffffffffffff16908173ffffffffffffffffffffffffffffffffffffffff16815250505080806102a2906109d4565b915050610206565b508091505090565b6102ba610516565b6102f9576040517f08c379a00000000000000000000000000000000000000000000000000000000081526004016102f090610a7a565b60405180910390fd5b60006003600081548092919061030e906109d4565b919050559050816001600083815260200190815260200160002060006101000a81548173ffffffffffffffffffffffffffffffffffffffff021916908373ffffffffffffffffffffffffffffffffffffffff1602179055506001600260008473ffffffffffffffffffffffffffffffffffffffff1673ffffffffffffffffffffffffffffffffffffffff16815260200190815260200160002060006101000a81548160ff0219169083151502179055505050565b60035481565b6103d0610516565b61040f576040517f08c379a000000000000000000000000000000000000000000000000000000000815260040161040690610a7a565b60405180910390fd5b600073ffffffffffffffffffffffffffffffffffffffff1660008054906101000a900473ffffffffffffffffffffffffffffffffffffffff1673ffffffffffffffffffffffffffffffffffffffff167f8be0079c531659141344cd1fd0a4f28419497f9722a3daafe3b4186f6b6457e060405160405180910390a360008060006101000a81548173ffffffffffffffffffffffffffffffffffffffff021916908373ffffffffffffffffffffffffffffffffffffffff160217905550565b60026020528060005260406000206000915054906101000a900460ff1681565b60008060009054906101000a900473ffffffffffffffffffffffffffffffffffffffff16905090565b60008060009054906101000a900473ffffffffffffffffffffffffffffffffffffffff1673ffffffffffffffffffffffffffffffffffffffff163373ffffffffffffffffffffffffffffffffffffffff1614905090565b60016020528060005260406000206000915054906101000a900473ffffffffffffffffffffffffffffffffffffffff1681565b6105a8610516565b6105e7576040517f08c379a00000000000000000000000000000000000000000000000000000000081526004016105de90610a7a565b60405180910390fd5b6105f0816105f3565b50565b600073ffffffffffffffffffffffffffffffffffffffff168173ffffffffffffffffffffffffffffffffffffffff16141561062d57600080fd5b8073ffffffffffffffffffffffffffffffffffffffff1660008054906101000a900473ffffffffffffffffffffffffffffffffffffffff1673ffffffffffffffffffffffffffffffffffffffff167f8be0079c531659141344cd1fd0a4f28419497f9722a3daafe3b4186f6b6457e060405160405180910390a3806000806101000a81548173ffffffffffffffffffffffffffffffffffffffff021916908373ffffffffffffffffffffffffffffffffffffffff16021790555050565b600081519050919050565b600082825260208201905092915050565b6000819050602082019050919050565b600073ffffffffffffffffffffffffffffffffffffffff82169050919050565b600061074182610716565b9050919050565b61075181610736565b82525050565b60006107638383610748565b60208301905092915050565b6000602082019050919050565b6000610787826106ea565b61079181856106f5565b935061079c83610706565b8060005b838110156107cd5781516107b48882610757565b97506107bf8361076f565b9250506001810190506107a0565b5085935050505092915050565b600060208201905081810360008301526107f4818461077c565b905092915050565b600080fd5b61080a81610736565b811461081557600080fd5b50565b60008135905061082781610801565b92915050565b600060208284031215610843576108426107fc565b5b600061085184828501610818565b91505092915050565b6000819050919050565b61086d8161085a565b82525050565b60006020820190506108886000830184610864565b92915050565b60008115159050919050565b6108a38161088e565b82525050565b60006020820190506108be600083018461089a565b92915050565b6108cd81610736565b82525050565b60006020820190506108e860008301846108c4565b92915050565b6108f78161085a565b811461090257600080fd5b50565b600081359050610914816108ee565b92915050565b6000602082840312156109305761092f6107fc565b5b600061093e84828501610905565b91505092915050565b7f4e487b7100000000000000000000000000000000000000000000000000000000600052604160045260246000fd5b7f4e487b7100000000000000000000000000000000000000000000000000000000600052603260045260246000fd5b7f4e487b7100000000000000000000000000000000000000000000000000000000600052601160045260246000fd5b60006109df8261085a565b91507fffffffffffffffffffffffffffffffffffffffffffffffffffffffffffffffff821415610a1257610a116109a5565b5b600182019050919050565b600082825260208201905092915050565b7f53656e646572206e6f7420617574686f72697a65642e00000000000000000000600082015250565b6000610a64601683610a1d565b9150610a6f82610a2e565b602082019050919050565b60006020820190508181036000830152610a9381610a57565b905091905056fea2646970667358221220d07251cdc1f1ad2a2af6fdfac6e8b219a789938ab58b301ce93b7dc5380c346d64736f6c634300080b0033",
  "immutableReferences": {},
  "source": "// SPDX-License-Identifier: MIT\r\npragma solidity >=0.4.22 <0.9.0;\r\n\r\n/**\r\n* @title Ownable\r\n* @dev The Ownable contract has an owner address, and provides basic authorization control\r\n* functions, this simplifies the implementation of \"user permissions\".\r\n*/\r\ncontract Ownable {\r\n  address private _owner;\r\n  mapping (uint256 => address) public managementAddress;\r\n  mapping(address => bool) public  managementList;  \r\n  uint public numberOfManager;\r\n  event OwnershipTransferred(\r\n    address indexed previousOwner,\r\n    address indexed newOwner\r\n  );\r\n\r\n  /**\r\n  * @dev The Ownable constructor sets the original `owner` of the contract to the sender\r\n  * account.\r\n  */\r\n  constructor() {\r\n    _owner = msg.sender;\r\n    addManager(msg.sender);\r\n    emit OwnershipTransferred(address(0), _owner);\r\n  }\r\n\r\n  /**\r\n  * @return the address of the owner.\r\n  */\r\n  function owner() public view returns(address) {\r\n    return _owner;\r\n  }\r\n\r\n  /**\r\n  * @dev Throws if called by any account other than the owner.\r\n  */\r\n  modifier onlyOwner() {\r\n    require(isOwner(),\"Sender not authorized.\");\r\n    _;\r\n  }\r\n    modifier includeManagementList(address addressManager) {\r\n        require(managementList[addressManager],\" You not is a Manager\" );\r\n        _;\r\n    }\r\n  /**\r\n  * @return true if `msg.sender` is the owner of the contract.\r\n  */\r\n  function isOwner() public view returns(bool) {\r\n    return msg.sender == _owner;\r\n  }\r\n\r\n  /**\r\n  * @dev Allows the current owner to relinquish control of the contract.\r\n  * @notice Renouncing to ownership will leave the contract without an owner.\r\n  * It will not be possible to call the functions with the `onlyOwner`\r\n  * modifier anymore.\r\n  */\r\n  function renounceOwnership() public onlyOwner {\r\n    emit OwnershipTransferred(_owner, address(0));\r\n    _owner = address(0);\r\n  }\r\n\r\n  /**\r\n  * @dev Allows the current owner to transfer control of the contract to a newOwner.\r\n  * @param newOwner The address to transfer ownership to.\r\n  */\r\n  function transferOwnership(address newOwner) public onlyOwner {\r\n    _transferOwnership(newOwner);\r\n  }\r\n  function addManager(address newManager) public onlyOwner {\r\n    uint256 index = numberOfManager++;\r\n    managementAddress[index] = newManager;\r\n    managementList[newManager] = true;\r\n\r\n  }\r\n  function getAllManagement() public view returns (address[] memory) {\r\n        address[]  memory allManager  = new address[](numberOfManager);\r\n        for (uint i = 0; i < numberOfManager; i++) {\r\n            address currentManager = managementAddress[i];\r\n            allManager[i]= currentManager;\r\n        }\r\n        return allManager;\r\n  }\r\n  /**\r\n  * @dev Transfers control of the contract to a newOwner.\r\n  * @param newOwner The address to transfer ownership to.\r\n  */\r\n  function _transferOwnership(address newOwner) internal {\r\n    require(newOwner != address(0));\r\n    emit OwnershipTransferred(_owner, newOwner);\r\n    _owner = newOwner;\r\n  }\r\n}\r\n",
  "sourcePath": "C:\\Users\\nguye\\OneDrive\\Desktop\\Ecommerce-Blockchain\\client\\contracts\\Ownable.sol",
  "compiler": {
    "name": "solc",
    "version": "0.8.11+commit.d7f03943.Emscripten.clang"
  },
  "schemaVersion": "3.4.4",
  "updatedAt": "2022-04-10T07:05:05.059Z",
  "devdoc": {
    "details": "The Ownable contract has an owner address, and provides basic authorization control functions, this simplifies the implementation of \"user permissions\".",
    "kind": "dev",
    "methods": {
      "constructor": {
        "details": "The Ownable constructor sets the original `owner` of the contract to the sender account."
      },
      "isOwner()": {
        "returns": {
          "_0": "true if `msg.sender` is the owner of the contract."
        }
      },
      "owner()": {
        "returns": {
          "_0": "the address of the owner."
        }
      },
      "renounceOwnership()": {
        "details": "Allows the current owner to relinquish control of the contract."
      },
      "transferOwnership(address)": {
        "details": "Allows the current owner to transfer control of the contract to a newOwner.",
        "params": {
          "newOwner": "The address to transfer ownership to."
        }
      }
    },
    "title": "Ownable",
    "version": 1
  },
  "userdoc": {
    "kind": "user",
    "methods": {
      "renounceOwnership()": {
        "notice": "Renouncing to ownership will leave the contract without an owner. It will not be possible to call the functions with the `onlyOwner` modifier anymore."
      }
    },
    "version": 1
  }
}