{
  "contractName": "ProductSupplier",
  "abi": [
    {
      "inputs": [],
      "name": "balanceReceived",
      "outputs": [
        {
          "internalType": "uint256",
          "name": "",
          "type": "uint256"
        }
      ],
      "stateMutability": "view",
      "type": "function",
      "constant": true
    },
    {
      "inputs": [
        {
          "internalType": "address",
          "name": "",
          "type": "address"
        }
      ],
      "name": "funders",
      "outputs": [
        {
          "internalType": "bool",
          "name": "",
          "type": "bool"
        }
      ],
      "stateMutability": "view",
      "type": "function",
      "constant": true
    },
    {
      "inputs": [
        {
          "internalType": "uint256",
          "name": "",
          "type": "uint256"
        }
      ],
      "name": "lutFunders",
      "outputs": [
        {
          "internalType": "address",
          "name": "",
          "type": "address"
        }
      ],
      "stateMutability": "view",
      "type": "function",
      "constant": true
    },
    {
      "inputs": [],
      "name": "numOfFunders",
      "outputs": [
        {
          "internalType": "uint256",
          "name": "",
          "type": "uint256"
        }
      ],
      "stateMutability": "view",
      "type": "function",
      "constant": true
    },
    {
      "stateMutability": "payable",
      "type": "receive",
      "payable": true
    },
    {
      "inputs": [],
      "name": "addFunds",
      "outputs": [],
      "stateMutability": "payable",
      "type": "function",
      "payable": true
    },
    {
      "inputs": [
        {
          "internalType": "uint256",
          "name": "index",
          "type": "uint256"
        }
      ],
      "name": "getFundersIndex",
      "outputs": [
        {
          "internalType": "address",
          "name": "",
          "type": "address"
        }
      ],
      "stateMutability": "view",
      "type": "function",
      "constant": true
    },
    {
      "inputs": [],
      "name": "getAllFunders",
      "outputs": [
        {
          "internalType": "address[]",
          "name": "",
          "type": "address[]"
        }
      ],
      "stateMutability": "view",
      "type": "function",
      "constant": true
    },
    {
      "inputs": [
        {
          "internalType": "uint256",
          "name": "withdrawAmount",
          "type": "uint256"
        }
      ],
      "name": "withdraw",
      "outputs": [],
      "stateMutability": "nonpayable",
      "type": "function"
    },
    {
      "inputs": [],
      "name": "getBalance",
      "outputs": [
        {
          "internalType": "uint256",
          "name": "",
          "type": "uint256"
        }
      ],
      "stateMutability": "view",
      "type": "function",
      "constant": true
    },
    {
      "inputs": [
        {
          "internalType": "address",
          "name": "_to",
          "type": "address"
        }
      ],
      "name": "withdrawMoneyTo",
      "outputs": [],
      "stateMutability": "payable",
      "type": "function",
      "payable": true
    },
    {
      "inputs": [
        {
          "internalType": "address payable",
          "name": "_to",
          "type": "address"
        },
        {
          "internalType": "uint256",
          "name": "_amount",
          "type": "uint256"
        }
      ],
      "name": "transferMoneyTo",
      "outputs": [],
      "stateMutability": "payable",
      "type": "function",
      "payable": true
    }
  ],
  "bytecode": "0x608060405234801561001057600080fd5b50610acd806100206000396000f3fe6080604052600436106100a05760003560e01c80632e1a7d4d116100645780632e1a7d4d146101aa57806352a90c42146101d35780635809d788146101fe5780636fbbb55d1461021a578063a26759cb14610245578063af7f2c9b1461024f576100a7565b8063031b3677146100ac5780630ff8d8a5146100e957806312065fe0146101055780631f8947ea146101305780632e1472de1461016d576100a7565b366100a757005b600080fd5b3480156100b857600080fd5b506100d360048036038101906100ce91906106cc565b61027a565b6040516100e09190610714565b60405180910390f35b61010360048036038101906100fe91906106cc565b61029a565b005b34801561011157600080fd5b5061011a6102eb565b6040516101279190610748565b60405180910390f35b34801561013c57600080fd5b506101576004803603810190610152919061078f565b6102f3565b60405161016491906107cb565b60405180910390f35b34801561017957600080fd5b50610194600480360381019061018f919061078f565b610326565b6040516101a191906107cb565b60405180910390f35b3480156101b657600080fd5b506101d160048036038101906101cc919061078f565b610363565b005b3480156101df57600080fd5b506101e86103fa565b6040516101f59190610748565b60405180910390f35b61021860048036038101906102139190610824565b610400565b005b34801561022657600080fd5b5061022f61044b565b60405161023c9190610922565b60405180910390f35b61024d610544565b005b34801561025b57600080fd5b50610264610663565b6040516102719190610748565b60405180910390f35b60026020528060005260406000206000915054906101000a900460ff1681565b8073ffffffffffffffffffffffffffffffffffffffff166108fc6102bc6102eb565b9081150290604051600060405180830381858888f193505050501580156102e7573d6000803e3d6000fd5b5050565b600047905090565b60016020528060005260406000206000915054906101000a900473ffffffffffffffffffffffffffffffffffffffff1681565b60006001600083815260200190815260200160002060009054906101000a900473ffffffffffffffffffffffffffffffffffffffff169050919050565b80670de0b6b3a76400008111156103af576040517f08c379a00000000000000000000000000000000000000000000000000000000081526004016103a6906109a1565b60405180910390fd5b3373ffffffffffffffffffffffffffffffffffffffff166108fc839081150290604051600060405180830381858888f193505050501580156103f5573d6000803e3d6000fd5b505050565b60035481565b8173ffffffffffffffffffffffffffffffffffffffff166108fc829081150290604051600060405180830381858888f19350505050158015610446573d6000803e3d6000fd5b505050565b60606000805467ffffffffffffffff81111561046a576104696109c1565b5b6040519080825280602002602001820160405280156104985781602001602082028036833780820191505090505b50905060005b60005481101561053c576001600082815260200190815260200160002060009054906101000a900473ffffffffffffffffffffffffffffffffffffffff168282815181106104ef576104ee6109f0565b5b602002602001019073ffffffffffffffffffffffffffffffffffffffff16908173ffffffffffffffffffffffffffffffffffffffff1681525050808061053490610a4e565b91505061049e565b508091505090565b6000339050600260008273ffffffffffffffffffffffffffffffffffffffff1673ffffffffffffffffffffffffffffffffffffffff16815260200190815260200160002060009054906101000a900460ff166106605760008060008154809291906105ae90610a4e565b9190505590506001600260008473ffffffffffffffffffffffffffffffffffffffff1673ffffffffffffffffffffffffffffffffffffffff16815260200190815260200160002060006101000a81548160ff021916908315150217905550816001600083815260200190815260200160002060006101000a81548173ffffffffffffffffffffffffffffffffffffffff021916908373ffffffffffffffffffffffffffffffffffffffff160217905550505b50565b60005481565b600080fd5b600073ffffffffffffffffffffffffffffffffffffffff82169050919050565b60006106998261066e565b9050919050565b6106a98161068e565b81146106b457600080fd5b50565b6000813590506106c6816106a0565b92915050565b6000602082840312156106e2576106e1610669565b5b60006106f0848285016106b7565b91505092915050565b60008115159050919050565b61070e816106f9565b82525050565b60006020820190506107296000830184610705565b92915050565b6000819050919050565b6107428161072f565b82525050565b600060208201905061075d6000830184610739565b92915050565b61076c8161072f565b811461077757600080fd5b50565b60008135905061078981610763565b92915050565b6000602082840312156107a5576107a4610669565b5b60006107b38482850161077a565b91505092915050565b6107c58161068e565b82525050565b60006020820190506107e060008301846107bc565b92915050565b60006107f18261066e565b9050919050565b610801816107e6565b811461080c57600080fd5b50565b60008135905061081e816107f8565b92915050565b6000806040838503121561083b5761083a610669565b5b60006108498582860161080f565b925050602061085a8582860161077a565b9150509250929050565b600081519050919050565b600082825260208201905092915050565b6000819050602082019050919050565b6108998161068e565b82525050565b60006108ab8383610890565b60208301905092915050565b6000602082019050919050565b60006108cf82610864565b6108d9818561086f565b93506108e483610880565b8060005b838110156109155781516108fc888261089f565b9750610907836108b7565b9250506001810190506108e8565b5085935050505092915050565b6000602082019050818103600083015261093c81846108c4565b905092915050565b600082825260208201905092915050565b7f43616e6e6f74207769746864726177206d6f7265207468616e20314554480000600082015250565b600061098b601e83610944565b915061099682610955565b602082019050919050565b600060208201905081810360008301526109ba8161097e565b9050919050565b7f4e487b7100000000000000000000000000000000000000000000000000000000600052604160045260246000fd5b7f4e487b7100000000000000000000000000000000000000000000000000000000600052603260045260246000fd5b7f4e487b7100000000000000000000000000000000000000000000000000000000600052601160045260246000fd5b6000610a598261072f565b91507fffffffffffffffffffffffffffffffffffffffffffffffffffffffffffffffff821415610a8c57610a8b610a1f565b5b60018201905091905056fea26469706673582212204c3cdd52c6dcdd12c0610a7f7c2ac7091c99e7d92034686fc7608bf17c2bd30864736f6c634300080b0033",
  "immutableReferences": {},
  "source": "// SPDX-License-Identifier: MIT\r\npragma solidity >=0.4.22 <0.9.0;\r\n\r\ncontract ProductSupplier {\r\n    uint256 public numOfFunders;\r\n    mapping(uint256 => address) public lutFunders;\r\n    mapping(address => bool) public funders;\r\n    uint public balanceReceived;\r\n    receive( ) external payable {}\r\n    function addFunds() external payable {\r\n        address funder = msg.sender;\r\n\r\n        if (!funders[funder]) {\r\n            uint256 index = numOfFunders++;\r\n            funders[funder] = true;\r\n            lutFunders[index] = funder;\r\n        }\r\n    }\r\n\r\n    function getFundersIndex(uint256 index) external view returns (address) {\r\n        return lutFunders[index];\r\n    }\r\n\r\n    function getAllFunders() external view returns (address[] memory) {\r\n        address[] memory _funders = new address[](numOfFunders);\r\n\r\n        for (uint256 i = 0; i < numOfFunders; i++) {\r\n            _funders[i] = lutFunders[i];\r\n        }\r\n        return _funders;\r\n    }\r\n\r\n    function withdraw(uint256 withdrawAmount)\r\n        external\r\n        limitWithdraw(withdrawAmount)\r\n    {\r\n        payable(msg.sender).transfer(withdrawAmount);\r\n    }\r\n\r\n    function getBalance() public view returns(uint) {\r\n        return address(this).balance;\r\n    }\r\n    function withdrawMoneyTo(address  _to) public payable {\r\n        payable(_to).transfer(getBalance());\r\n    }\r\n    function transferMoneyTo(address payable _to, uint _amount) public payable {\r\n        _to.transfer(_amount);\r\n    }\r\n    modifier limitWithdraw(uint256 withdrawAmount) {\r\n        require(\r\n            withdrawAmount <= 1 * (10**18),\r\n            \"Cannot withdraw more than 1ETH\"\r\n        );\r\n\r\n        _;\r\n    }\r\n}\r\n",
  "sourcePath": "C:\\Users\\nguye\\OneDrive\\Desktop\\Ecommerce-Blockchain\\client\\contracts\\ProductSupplier.sol",
  "compiler": {
    "name": "solc",
    "version": "0.8.11+commit.d7f03943.Emscripten.clang"
  },
  "schemaVersion": "3.4.4",
  "updatedAt": "2022-03-23T08:05:24.111Z",
  "networkType": "ethereum",
  "devdoc": {
    "kind": "dev",
    "methods": {},
    "version": 1
  },
  "userdoc": {
    "kind": "user",
    "methods": {},
    "version": 1
  }
}